{
    "_format": "hh-sol-artifact-1",
    "contractName": "mintContract",
    "sourceName": "contracts/mintContract.sol",
    "abi": [
        {
            "inputs": [
                {
                    "internalType": "string",
                    "name": "_name",
                    "type": "string"
                },
                {
                    "internalType": "string",
                    "name": "_symbol",
                    "type": "string"
                }
            ],
            "stateMutability": "nonpayable",
            "type": "constructor"
        },
        {
            "anonymous": false,
            "inputs": [
                {
                    "indexed": true,
                    "internalType": "address",
                    "name": "owner",
                    "type": "address"
                },
                {
                    "indexed": true,
                    "internalType": "address",
                    "name": "approved",
                    "type": "address"
                },
                {
                    "indexed": true,
                    "internalType": "uint256",
                    "name": "tokenId",
                    "type": "uint256"
                }
            ],
            "name": "Approval",
            "type": "event"
        },
        {
            "anonymous": false,
            "inputs": [
                {
                    "indexed": true,
                    "internalType": "address",
                    "name": "owner",
                    "type": "address"
                },
                {
                    "indexed": true,
                    "internalType": "address",
                    "name": "operator",
                    "type": "address"
                },
                {
                    "indexed": false,
                    "internalType": "bool",
                    "name": "approved",
                    "type": "bool"
                }
            ],
            "name": "ApprovalForAll",
            "type": "event"
        },
        {
            "anonymous": false,
            "inputs": [
                {
                    "indexed": true,
                    "internalType": "address",
                    "name": "nft",
                    "type": "address"
                },
                {
                    "indexed": false,
                    "internalType": "uint256",
                    "name": "tokenId",
                    "type": "uint256"
                },
                {
                    "indexed": false,
                    "internalType": "uint256",
                    "name": "price",
                    "type": "uint256"
                },
                {
                    "indexed": true,
                    "internalType": "address",
                    "name": "seller",
                    "type": "address"
                },
                {
                    "indexed": true,
                    "internalType": "address",
                    "name": "buyer",
                    "type": "address"
                }
            ],
            "name": "Bought",
            "type": "event"
        },
        {
            "anonymous": false,
            "inputs": [
                {
                    "indexed": true,
                    "internalType": "address",
                    "name": "nftContract",
                    "type": "address"
                },
                {
                    "indexed": true,
                    "internalType": "uint256",
                    "name": "tokenId",
                    "type": "uint256"
                },
                {
                    "indexed": false,
                    "internalType": "address",
                    "name": "seller",
                    "type": "address"
                },
                {
                    "indexed": false,
                    "internalType": "address",
                    "name": "owner",
                    "type": "address"
                },
                {
                    "indexed": false,
                    "internalType": "uint256",
                    "name": "price",
                    "type": "uint256"
                }
            ],
            "name": "MarketItemCreated",
            "type": "event"
        },
        {
            "anonymous": false,
            "inputs": [
                {
                    "indexed": true,
                    "internalType": "address",
                    "name": "from",
                    "type": "address"
                },
                {
                    "indexed": true,
                    "internalType": "address",
                    "name": "to",
                    "type": "address"
                },
                {
                    "indexed": true,
                    "internalType": "uint256",
                    "name": "tokenId",
                    "type": "uint256"
                }
            ],
            "name": "Transfer",
            "type": "event"
        },
        {
            "inputs": [
                {
                    "internalType": "address",
                    "name": "to",
                    "type": "address"
                },
                {
                    "internalType": "uint256",
                    "name": "tokenId",
                    "type": "uint256"
                }
            ],
            "name": "approve",
            "outputs": [],
            "stateMutability": "nonpayable",
            "type": "function"
        },
        {
            "inputs": [
                {
                    "internalType": "address",
                    "name": "owner",
                    "type": "address"
                }
            ],
            "name": "balanceOf",
            "outputs": [
                {
                    "internalType": "uint256",
                    "name": "",
                    "type": "uint256"
                }
            ],
            "stateMutability": "view",
            "type": "function"
        },
        {
            "inputs": [],
            "name": "feeAccount",
            "outputs": [
                {
                    "internalType": "address payable",
                    "name": "",
                    "type": "address"
                }
            ],
            "stateMutability": "view",
            "type": "function"
        },
        {
            "inputs": [],
            "name": "feePercent",
            "outputs": [
                {
                    "internalType": "uint256",
                    "name": "",
                    "type": "uint256"
                }
            ],
            "stateMutability": "view",
            "type": "function"
        },
        {
            "inputs": [
                {
                    "internalType": "uint256",
                    "name": "tokenId",
                    "type": "uint256"
                }
            ],
            "name": "getApproved",
            "outputs": [
                {
                    "internalType": "address",
                    "name": "",
                    "type": "address"
                }
            ],
            "stateMutability": "view",
            "type": "function"
        },
        {
            "inputs": [
                {
                    "internalType": "uint256",
                    "name": "tokenId",
                    "type": "uint256"
                }
            ],
            "name": "getTotalPrice",
            "outputs": [
                {
                    "internalType": "uint256",
                    "name": "",
                    "type": "uint256"
                }
            ],
            "stateMutability": "view",
            "type": "function"
        },
        {
            "inputs": [
                {
                    "internalType": "address",
                    "name": "owner",
                    "type": "address"
                },
                {
                    "internalType": "address",
                    "name": "operator",
                    "type": "address"
                }
            ],
            "name": "isApprovedForAll",
            "outputs": [
                {
                    "internalType": "bool",
                    "name": "",
                    "type": "bool"
                }
            ],
            "stateMutability": "view",
            "type": "function"
        },
        {
            "inputs": [
                {
                    "internalType": "uint256",
                    "name": "",
                    "type": "uint256"
                }
            ],
            "name": "marketItems",
            "outputs": [
                {
                    "internalType": "address",
                    "name": "nftContract",
                    "type": "address"
                },
                {
                    "internalType": "uint256",
                    "name": "tokenId",
                    "type": "uint256"
                },
                {
                    "internalType": "address payable",
                    "name": "seller",
                    "type": "address"
                },
                {
                    "internalType": "address payable",
                    "name": "owner",
                    "type": "address"
                },
                {
                    "internalType": "uint256",
                    "name": "price",
                    "type": "uint256"
                },
                {
                    "internalType": "bool",
                    "name": "sold",
                    "type": "bool"
                }
            ],
            "stateMutability": "view",
            "type": "function"
        },
        {
            "inputs": [],
            "name": "name",
            "outputs": [
                {
                    "internalType": "string",
                    "name": "",
                    "type": "string"
                }
            ],
            "stateMutability": "view",
            "type": "function"
        },
        {
            "inputs": [
                {
                    "internalType": "uint256",
                    "name": "tokenId",
                    "type": "uint256"
                }
            ],
            "name": "ownerOf",
            "outputs": [
                {
                    "internalType": "address",
                    "name": "",
                    "type": "address"
                }
            ],
            "stateMutability": "view",
            "type": "function"
        },
        {
            "inputs": [
                {
                    "internalType": "uint256",
                    "name": "tokenId",
                    "type": "uint256"
                },
                {
                    "internalType": "address",
                    "name": "to",
                    "type": "address"
                }
            ],
            "name": "purchaseItem",
            "outputs": [],
            "stateMutability": "payable",
            "type": "function"
        },
        {
            "inputs": [
                {
                    "internalType": "address",
                    "name": "to",
                    "type": "address"
                },
                {
                    "internalType": "uint256",
                    "name": "price",
                    "type": "uint256"
                }
            ],
            "name": "safeMint",
            "outputs": [
                {
                    "internalType": "uint256",
                    "name": "",
                    "type": "uint256"
                }
            ],
            "stateMutability": "nonpayable",
            "type": "function"
        },
        {
            "inputs": [
                {
                    "internalType": "address",
                    "name": "from",
                    "type": "address"
                },
                {
                    "internalType": "address",
                    "name": "to",
                    "type": "address"
                },
                {
                    "internalType": "uint256",
                    "name": "tokenId",
                    "type": "uint256"
                }
            ],
            "name": "safeTransferFrom",
            "outputs": [],
            "stateMutability": "nonpayable",
            "type": "function"
        },
        {
            "inputs": [
                {
                    "internalType": "address",
                    "name": "from",
                    "type": "address"
                },
                {
                    "internalType": "address",
                    "name": "to",
                    "type": "address"
                },
                {
                    "internalType": "uint256",
                    "name": "tokenId",
                    "type": "uint256"
                },
                {
                    "internalType": "bytes",
                    "name": "_data",
                    "type": "bytes"
                }
            ],
            "name": "safeTransferFrom",
            "outputs": [],
            "stateMutability": "nonpayable",
            "type": "function"
        },
        {
            "inputs": [
                {
                    "internalType": "address",
                    "name": "operator",
                    "type": "address"
                },
                {
                    "internalType": "bool",
                    "name": "approved",
                    "type": "bool"
                }
            ],
            "name": "setApprovalForAll",
            "outputs": [],
            "stateMutability": "nonpayable",
            "type": "function"
        },
        {
            "inputs": [
                {
                    "internalType": "bytes4",
                    "name": "interfaceId",
                    "type": "bytes4"
                }
            ],
            "name": "supportsInterface",
            "outputs": [
                {
                    "internalType": "bool",
                    "name": "",
                    "type": "bool"
                }
            ],
            "stateMutability": "view",
            "type": "function"
        },
        {
            "inputs": [],
            "name": "symbol",
            "outputs": [
                {
                    "internalType": "string",
                    "name": "",
                    "type": "string"
                }
            ],
            "stateMutability": "view",
            "type": "function"
        },
        {
            "inputs": [
                {
                    "internalType": "uint256",
                    "name": "tokenId",
                    "type": "uint256"
                }
            ],
            "name": "tokenURI",
            "outputs": [
                {
                    "internalType": "string",
                    "name": "",
                    "type": "string"
                }
            ],
            "stateMutability": "view",
            "type": "function"
        },
        {
            "inputs": [
                {
                    "internalType": "address",
                    "name": "from",
                    "type": "address"
                },
                {
                    "internalType": "address",
                    "name": "to",
                    "type": "address"
                },
                {
                    "internalType": "uint256",
                    "name": "tokenId",
                    "type": "uint256"
                }
            ],
            "name": "transferFrom",
            "outputs": [],
            "stateMutability": "nonpayable",
            "type": "function"
        },
        {
            "inputs": [
                {
                    "internalType": "address",
                    "name": "from",
                    "type": "address"
                },
                {
                    "internalType": "address payable",
                    "name": "to",
                    "type": "address"
                },
                {
                    "internalType": "address",
                    "name": "token",
                    "type": "address"
                },
                {
                    "internalType": "uint256",
                    "name": "amount",
                    "type": "uint256"
                }
            ],
            "name": "transferTokens",
            "outputs": [],
            "stateMutability": "nonpayable",
            "type": "function"
        }
    ],
    "bytecode": "0x608060405260026007553480156200001657600080fd5b50604051620039473803806200394783398181016040528101906200003c91906200019c565b81818160009080519060200190620000569291906200007a565b5080600190805190602001906200006f9291906200007a565b50505050506200037f565b8280546200008890620002a4565b90600052602060002090601f016020900481019282620000ac5760008555620000f8565b82601f10620000c757805160ff1916838001178555620000f8565b82800160010185558215620000f8579182015b82811115620000f7578251825591602001919060010190620000da565b5b5090506200010791906200010b565b5090565b5b80821115620001265760008160009055506001016200010c565b5090565b6000620001416200013b8462000238565b6200020f565b9050828152602081018484840111156200015a57600080fd5b620001678482856200026e565b509392505050565b600082601f8301126200018157600080fd5b8151620001938482602086016200012a565b91505092915050565b60008060408385031215620001b057600080fd5b600083015167ffffffffffffffff811115620001cb57600080fd5b620001d9858286016200016f565b925050602083015167ffffffffffffffff811115620001f757600080fd5b62000205858286016200016f565b9150509250929050565b60006200021b6200022e565b9050620002298282620002da565b919050565b6000604051905090565b600067ffffffffffffffff8211156200025657620002556200033f565b5b62000261826200036e565b9050602081019050919050565b60005b838110156200028e57808201518184015260208101905062000271565b838111156200029e576000848401525b50505050565b60006002820490506001821680620002bd57607f821691505b60208210811415620002d457620002d362000310565b5b50919050565b620002e5826200036e565b810181811067ffffffffffffffff821117156200030757620003066200033f565b5b80604052505050565b7f4e487b7100000000000000000000000000000000000000000000000000000000600052602260045260246000fd5b7f4e487b7100000000000000000000000000000000000000000000000000000000600052604160045260246000fd5b6000601f19601f8301169050919050565b6135b8806200038f6000396000f3fe60806040526004361061011f5760003560e01c806370a08231116100a0578063a22cb46511610064578063a22cb46514610403578063b88d4fde1461042c578063c87b56dd14610455578063ca7dd37514610492578063e985e9c5146104cf5761011f565b806370a08231146103175780637bfe9efd146103545780637fd6f15c1461037057806395d89b411461039b578063a1448194146103c65761011f565b806342842e0e116100e757806342842e0e1461021b57806351f28e14146102445780636352211e1461028657806365e17c9d146102c357806368155ec1146102ee5761011f565b806301ffc9a71461012457806306fdde0314610161578063081812fc1461018c578063095ea7b3146101c957806323b872dd146101f2575b600080fd5b34801561013057600080fd5b5061014b600480360381019061014691906123cd565b61050c565b6040516101589190612971565b60405180910390f35b34801561016d57600080fd5b506101766105ee565b604051610183919061298c565b60405180910390f35b34801561019857600080fd5b506101b360048036038101906101ae919061241f565b610680565b6040516101c091906127e9565b60405180910390f35b3480156101d557600080fd5b506101f060048036038101906101eb9190612391565b610705565b005b3480156101fe57600080fd5b506102196004803603810190610214919061228b565b61081d565b005b34801561022757600080fd5b50610242600480360381019061023d919061228b565b610876565b005b34801561025057600080fd5b5061026b6004803603810190610266919061241f565b610896565b60405161027d96959493929190612910565b60405180910390f35b34801561029257600080fd5b506102ad60048036038101906102a8919061241f565b61093f565b6040516102ba91906127e9565b60405180910390f35b3480156102cf57600080fd5b506102d86109f1565b6040516102e59190612804565b60405180910390f35b3480156102fa57600080fd5b5061031560048036038101906103109190612228565b610a17565b005b34801561032357600080fd5b5061033e600480360381019061033991906121c3565b610b3a565b60405161034b9190612bce565b60405180910390f35b61036e60048036038101906103699190612448565b610bf2565b005b34801561037c57600080fd5b50610385610f96565b6040516103929190612bce565b60405180910390f35b3480156103a757600080fd5b506103b0610f9c565b6040516103bd919061298c565b60405180910390f35b3480156103d257600080fd5b506103ed60048036038101906103e89190612391565b61102e565b6040516103fa9190612bce565b60405180910390f35b34801561040f57600080fd5b5061042a60048036038101906104259190612355565b611241565b005b34801561043857600080fd5b50610453600480360381019061044e91906122da565b611257565b005b34801561046157600080fd5b5061047c6004803603810190610477919061241f565b6112b9565b604051610489919061298c565b60405180910390f35b34801561049e57600080fd5b506104b960048036038101906104b4919061241f565b611360565b6040516104c69190612bce565b60405180910390f35b3480156104db57600080fd5b506104f660048036038101906104f191906121ec565b6113a5565b6040516105039190612971565b60405180910390f35b60007f80ac58cd000000000000000000000000000000000000000000000000000000007bffffffffffffffffffffffffffffffffffffffffffffffffffffffff1916827bffffffffffffffffffffffffffffffffffffffffffffffffffffffff191614806105d757507f5b5e139f000000000000000000000000000000000000000000000000000000007bffffffffffffffffffffffffffffffffffffffffffffffffffffffff1916827bffffffffffffffffffffffffffffffffffffffffffffffffffffffff1916145b806105e757506105e682611439565b5b9050919050565b6060600080546105fd90612ebe565b80601f016020809104026020016040519081016040528092919081815260200182805461062990612ebe565b80156106765780601f1061064b57610100808354040283529160200191610676565b820191906000526020600020905b81548152906001019060200180831161065957829003601f168201915b5050505050905090565b600061068b826114a3565b6106ca576040517f08c379a00000000000000000000000000000000000000000000000000000000081526004016106c190612b4e565b60405180910390fd5b6004600083815260200190815260200160002060009054906101000a900473ffffffffffffffffffffffffffffffffffffffff169050919050565b60006107108261093f565b90508073ffffffffffffffffffffffffffffffffffffffff168373ffffffffffffffffffffffffffffffffffffffff161415610781576040517f08c379a000000000000000000000000000000000000000000000000000000000815260040161077890612b8e565b60405180910390fd5b8073ffffffffffffffffffffffffffffffffffffffff166107a061150f565b73ffffffffffffffffffffffffffffffffffffffff1614806107cf57506107ce816107c961150f565b6113a5565b5b61080e576040517f08c379a000000000000000000000000000000000000000000000000000000000815260040161080590612aae565b60405180910390fd5b6108188383611517565b505050565b61082783826115d0565b610866576040517f08c379a000000000000000000000000000000000000000000000000000000000815260040161085d90612bae565b60405180910390fd5b6108718383836116ae565b505050565b61089183838360405180602001604052806000815250611257565b505050565b60096020528060005260406000206000915090508060000160009054906101000a900473ffffffffffffffffffffffffffffffffffffffff16908060010154908060020160009054906101000a900473ffffffffffffffffffffffffffffffffffffffff16908060030160009054906101000a900473ffffffffffffffffffffffffffffffffffffffff16908060040154908060050160009054906101000a900460ff16905086565b6000806002600084815260200190815260200160002060009054906101000a900473ffffffffffffffffffffffffffffffffffffffff169050600073ffffffffffffffffffffffffffffffffffffffff168173ffffffffffffffffffffffffffffffffffffffff1614156109e8576040517f08c379a00000000000000000000000000000000000000000000000000000000081526004016109df90612aee565b60405180910390fd5b80915050919050565b600860009054906101000a900473ffffffffffffffffffffffffffffffffffffffff1681565b600073ffffffffffffffffffffffffffffffffffffffff168273ffffffffffffffffffffffffffffffffffffffff1614610abf578173ffffffffffffffffffffffffffffffffffffffff166323b872dd8585846040518463ffffffff1660e01b8152600401610a8893929190612856565b600060405180830381600087803b158015610aa257600080fd5b505af1158015610ab6573d6000803e3d6000fd5b50505050610b34565b8273ffffffffffffffffffffffffffffffffffffffff166108fc829081150290604051600060405180830381858888f19350505050610b33576040517f08c379a0000000000000000000000000000000000000000000000000000000008152600401610b2a90612b0e565b60405180910390fd5b5b50505050565b60008073ffffffffffffffffffffffffffffffffffffffff168273ffffffffffffffffffffffffffffffffffffffff161415610bab576040517f08c379a0000000000000000000000000000000000000000000000000000000008152600401610ba290612ace565b60405180910390fd5b600360008373ffffffffffffffffffffffffffffffffffffffff1673ffffffffffffffffffffffffffffffffffffffff168152602001908152602001600020549050919050565b6000610bfd83611360565b90506000600960008581526020019081526020016000206040518060c00160405290816000820160009054906101000a900473ffffffffffffffffffffffffffffffffffffffff1673ffffffffffffffffffffffffffffffffffffffff1673ffffffffffffffffffffffffffffffffffffffff168152602001600182015481526020016002820160009054906101000a900473ffffffffffffffffffffffffffffffffffffffff1673ffffffffffffffffffffffffffffffffffffffff1673ffffffffffffffffffffffffffffffffffffffff1681526020016003820160009054906101000a900473ffffffffffffffffffffffffffffffffffffffff1673ffffffffffffffffffffffffffffffffffffffff1673ffffffffffffffffffffffffffffffffffffffff168152602001600482015481526020016005820160009054906101000a900460ff161515151581525050905081341015610d95576040517f08c379a0000000000000000000000000000000000000000000000000000000008152600401610d8c906129ae565b60405180910390fd5b8060a0015115610dda576040517f08c379a0000000000000000000000000000000000000000000000000000000008152600401610dd1906129ce565b60405180910390fd5b806040015173ffffffffffffffffffffffffffffffffffffffff166108fc82608001519081150290604051600060405180830381858888f19350505050158015610e28573d6000803e3d6000fd5b5060018160a0019015159081151581525050806000015173ffffffffffffffffffffffffffffffffffffffff166323b872dd826040015185876040518463ffffffff1660e01b8152600401610e7f9392919061281f565b600060405180830381600087803b158015610e9957600080fd5b505af1158015610ead573d6000803e3d6000fd5b50505050826009600086815260200190815260200160002060030160006101000a81548173ffffffffffffffffffffffffffffffffffffffff021916908373ffffffffffffffffffffffffffffffffffffffff1602179055508273ffffffffffffffffffffffffffffffffffffffff16816040015173ffffffffffffffffffffffffffffffffffffffff163073ffffffffffffffffffffffffffffffffffffffff167feb63d138ac814e90b4d90e51c5d97954429da77f7266e9aa0bf33bd9863f131d84602001518560800151604051610f88929190612be9565b60405180910390a450505050565b60075481565b606060018054610fab90612ebe565b80601f0160208091040260200160405190810160405280929190818152602001828054610fd790612ebe565b80156110245780601f10610ff957610100808354040283529160200191611024565b820191906000526020600020905b81548152906001019060200180831161100757829003601f168201915b5050505050905090565b60008061103b6006611915565b90506110478482611923565b6040518060c001604052803073ffffffffffffffffffffffffffffffffffffffff1681526020018281526020018573ffffffffffffffffffffffffffffffffffffffff168152602001600073ffffffffffffffffffffffffffffffffffffffff168152602001848152602001600015158152506009600083815260200190815260200160002060008201518160000160006101000a81548173ffffffffffffffffffffffffffffffffffffffff021916908373ffffffffffffffffffffffffffffffffffffffff1602179055506020820151816001015560408201518160020160006101000a81548173ffffffffffffffffffffffffffffffffffffffff021916908373ffffffffffffffffffffffffffffffffffffffff16021790555060608201518160030160006101000a81548173ffffffffffffffffffffffffffffffffffffffff021916908373ffffffffffffffffffffffffffffffffffffffff1602179055506080820151816004015560a08201518160050160006101000a81548160ff0219169083151502179055509050506111e36006611941565b803073ffffffffffffffffffffffffffffffffffffffff167f4e87d65c4baed28b185aa1f2f583850f4140e7ee01ee27c4e06f622d085b1bfc8660008760405161122f9392919061288d565b60405180910390a38091505092915050565b61125361124c61150f565b8383611957565b5050565b61126861126261150f565b836115d0565b6112a7576040517f08c379a000000000000000000000000000000000000000000000000000000000815260040161129e90612bae565b60405180910390fd5b6112b384848484611ac4565b50505050565b60606112c4826114a3565b611303576040517f08c379a00000000000000000000000000000000000000000000000000000000081526004016112fa90612b6e565b60405180910390fd5b600061130d611b20565b9050600081511161132d5760405180602001604052806000815250611358565b8061133784611b37565b6040516020016113489291906127c5565b6040516020818303038152906040525b915050919050565b6000606460075460646113739190612cab565b60096000858152602001908152602001600020600401546113949190612d32565b61139e9190612d01565b9050919050565b6000600560008473ffffffffffffffffffffffffffffffffffffffff1673ffffffffffffffffffffffffffffffffffffffff16815260200190815260200160002060008373ffffffffffffffffffffffffffffffffffffffff1673ffffffffffffffffffffffffffffffffffffffff16815260200190815260200160002060009054906101000a900460ff16905092915050565b60007f01ffc9a7000000000000000000000000000000000000000000000000000000007bffffffffffffffffffffffffffffffffffffffffffffffffffffffff1916827bffffffffffffffffffffffffffffffffffffffffffffffffffffffff1916149050919050565b60008073ffffffffffffffffffffffffffffffffffffffff166002600084815260200190815260200160002060009054906101000a900473ffffffffffffffffffffffffffffffffffffffff1673ffffffffffffffffffffffffffffffffffffffff1614159050919050565b600033905090565b816004600083815260200190815260200160002060006101000a81548173ffffffffffffffffffffffffffffffffffffffff021916908373ffffffffffffffffffffffffffffffffffffffff160217905550808273ffffffffffffffffffffffffffffffffffffffff1661158a8361093f565b73ffffffffffffffffffffffffffffffffffffffff167f8c5be1e5ebec7d5bd14f71427d1e84f3dd0314c0f7b2291e5b200ac8c7c3b92560405160405180910390a45050565b60006115db826114a3565b61161a576040517f08c379a000000000000000000000000000000000000000000000000000000000815260040161161190612a8e565b60405180910390fd5b60006116258361093f565b90508073ffffffffffffffffffffffffffffffffffffffff168473ffffffffffffffffffffffffffffffffffffffff16148061169457508373ffffffffffffffffffffffffffffffffffffffff1661167c84610680565b73ffffffffffffffffffffffffffffffffffffffff16145b806116a557506116a481856113a5565b5b91505092915050565b8273ffffffffffffffffffffffffffffffffffffffff166116ce8261093f565b73ffffffffffffffffffffffffffffffffffffffff1614611724576040517f08c379a000000000000000000000000000000000000000000000000000000000815260040161171b90612a0e565b60405180910390fd5b600073ffffffffffffffffffffffffffffffffffffffff168273ffffffffffffffffffffffffffffffffffffffff161415611794576040517f08c379a000000000000000000000000000000000000000000000000000000000815260040161178b90612a4e565b60405180910390fd5b61179f838383611ce4565b6117aa600082611517565b6001600360008573ffffffffffffffffffffffffffffffffffffffff1673ffffffffffffffffffffffffffffffffffffffff16815260200190815260200160002060008282546117fa9190612d8c565b925050819055506001600360008473ffffffffffffffffffffffffffffffffffffffff1673ffffffffffffffffffffffffffffffffffffffff16815260200190815260200160002060008282546118519190612cab565b92505081905550816002600083815260200190815260200160002060006101000a81548173ffffffffffffffffffffffffffffffffffffffff021916908373ffffffffffffffffffffffffffffffffffffffff160217905550808273ffffffffffffffffffffffffffffffffffffffff168473ffffffffffffffffffffffffffffffffffffffff167fddf252ad1be2c89b69c2b068fc378daa952ba7f163c4a11628f55a4df523b3ef60405160405180910390a4611910838383611ce9565b505050565b600081600001549050919050565b61193d828260405180602001604052806000815250611cee565b5050565b6001816000016000828254019250508190555050565b8173ffffffffffffffffffffffffffffffffffffffff168373ffffffffffffffffffffffffffffffffffffffff1614156119c6576040517f08c379a00000000000000000000000000000000000000000000000000000000081526004016119bd90612a6e565b60405180910390fd5b80600560008573ffffffffffffffffffffffffffffffffffffffff1673ffffffffffffffffffffffffffffffffffffffff16815260200190815260200160002060008473ffffffffffffffffffffffffffffffffffffffff1673ffffffffffffffffffffffffffffffffffffffff16815260200190815260200160002060006101000a81548160ff0219169083151502179055508173ffffffffffffffffffffffffffffffffffffffff168373ffffffffffffffffffffffffffffffffffffffff167f17307eab39ab6107e8899845ad3d59bd9653f200f220920489ca2b5937696c3183604051611ab79190612971565b60405180910390a3505050565b611acf8484846116ae565b611adb84848484611d49565b611b1a576040517f08c379a0000000000000000000000000000000000000000000000000000000008152600401611b11906129ee565b60405180910390fd5b50505050565b606060405180602001604052806000815250905090565b60606000821415611b7f576040518060400160405280600181526020017f30000000000000000000000000000000000000000000000000000000000000008152509050611cdf565b600082905060005b60008214611bb1578080611b9a90612f21565b915050600a82611baa9190612d01565b9150611b87565b60008167ffffffffffffffff811115611bf3577f4e487b7100000000000000000000000000000000000000000000000000000000600052604160045260246000fd5b6040519080825280601f01601f191660200182016040528015611c255781602001600182028036833780820191505090505b5090505b60008514611cd857600182611c3e9190612d8c565b9150600a85611c4d9190612f6a565b6030611c599190612cab565b60f81b818381518110611c95577f4e487b7100000000000000000000000000000000000000000000000000000000600052603260045260246000fd5b60200101907effffffffffffffffffffffffffffffffffffffffffffffffffffffffffffff1916908160001a905350600a85611cd19190612d01565b9450611c29565b8093505050505b919050565b505050565b505050565b611cf88383611ee0565b611d056000848484611d49565b611d44576040517f08c379a0000000000000000000000000000000000000000000000000000000008152600401611d3b906129ee565b60405180910390fd5b505050565b6000611d6a8473ffffffffffffffffffffffffffffffffffffffff166120ba565b15611ed3578373ffffffffffffffffffffffffffffffffffffffff1663150b7a02611d9361150f565b8786866040518563ffffffff1660e01b8152600401611db594939291906128c4565b602060405180830381600087803b158015611dcf57600080fd5b505af1925050508015611e0057506040513d601f19601f82011682018060405250810190611dfd91906123f6565b60015b611e83573d8060008114611e30576040519150601f19603f3d011682016040523d82523d6000602084013e611e35565b606091505b50600081511415611e7b576040517f08c379a0000000000000000000000000000000000000000000000000000000008152600401611e72906129ee565b60405180910390fd5b805181602001fd5b63150b7a0260e01b7bffffffffffffffffffffffffffffffffffffffffffffffffffffffff1916817bffffffffffffffffffffffffffffffffffffffffffffffffffffffff191614915050611ed8565b600190505b949350505050565b600073ffffffffffffffffffffffffffffffffffffffff168273ffffffffffffffffffffffffffffffffffffffff161415611f50576040517f08c379a0000000000000000000000000000000000000000000000000000000008152600401611f4790612b2e565b60405180910390fd5b611f59816114a3565b15611f99576040517f08c379a0000000000000000000000000000000000000000000000000000000008152600401611f9090612a2e565b60405180910390fd5b611fa560008383611ce4565b6001600360008473ffffffffffffffffffffffffffffffffffffffff1673ffffffffffffffffffffffffffffffffffffffff1681526020019081526020016000206000828254611ff59190612cab565b92505081905550816002600083815260200190815260200160002060006101000a81548173ffffffffffffffffffffffffffffffffffffffff021916908373ffffffffffffffffffffffffffffffffffffffff160217905550808273ffffffffffffffffffffffffffffffffffffffff16600073ffffffffffffffffffffffffffffffffffffffff167fddf252ad1be2c89b69c2b068fc378daa952ba7f163c4a11628f55a4df523b3ef60405160405180910390a46120b660008383611ce9565b5050565b6000808273ffffffffffffffffffffffffffffffffffffffff163b119050919050565b60006120f06120eb84612c37565b612c12565b90508281526020810184848401111561210857600080fd5b612113848285612e7c565b509392505050565b60008135905061212a8161350f565b92915050565b60008135905061213f81613526565b92915050565b6000813590506121548161353d565b92915050565b60008135905061216981613554565b92915050565b60008151905061217e81613554565b92915050565b600082601f83011261219557600080fd5b81356121a58482602086016120dd565b91505092915050565b6000813590506121bd8161356b565b92915050565b6000602082840312156121d557600080fd5b60006121e38482850161211b565b91505092915050565b600080604083850312156121ff57600080fd5b600061220d8582860161211b565b925050602061221e8582860161211b565b9150509250929050565b6000806000806080858703121561223e57600080fd5b600061224c8782880161211b565b945050602061225d87828801612130565b935050604061226e8782880161211b565b925050606061227f878288016121ae565b91505092959194509250565b6000806000606084860312156122a057600080fd5b60006122ae8682870161211b565b93505060206122bf8682870161211b565b92505060406122d0868287016121ae565b9150509250925092565b600080600080608085870312156122f057600080fd5b60006122fe8782880161211b565b945050602061230f8782880161211b565b9350506040612320878288016121ae565b925050606085013567ffffffffffffffff81111561233d57600080fd5b61234987828801612184565b91505092959194509250565b6000806040838503121561236857600080fd5b60006123768582860161211b565b925050602061238785828601612145565b9150509250929050565b600080604083850312156123a457600080fd5b60006123b28582860161211b565b92505060206123c3858286016121ae565b9150509250929050565b6000602082840312156123df57600080fd5b60006123ed8482850161215a565b91505092915050565b60006020828403121561240857600080fd5b60006124168482850161216f565b91505092915050565b60006020828403121561243157600080fd5b600061243f848285016121ae565b91505092915050565b6000806040838503121561245b57600080fd5b6000612469858286016121ae565b925050602061247a8582860161211b565b9150509250929050565b61248d81612e46565b82525050565b61249c81612dd2565b82525050565b6124ab81612dc0565b82525050565b6124ba81612de4565b82525050565b60006124cb82612c68565b6124d58185612c7e565b93506124e5818560208601612e8b565b6124ee81613057565b840191505092915050565b600061250482612c73565b61250e8185612c8f565b935061251e818560208601612e8b565b61252781613057565b840191505092915050565b600061253d82612c73565b6125478185612ca0565b9350612557818560208601612e8b565b80840191505092915050565b6000612570603383612c8f565b915061257b82613068565b604082019050919050565b6000612593601183612c8f565b915061259e826130b7565b602082019050919050565b60006125b6603283612c8f565b91506125c1826130e0565b604082019050919050565b60006125d9602583612c8f565b91506125e48261312f565b604082019050919050565b60006125fc601c83612c8f565b91506126078261317e565b602082019050919050565b600061261f602483612c8f565b915061262a826131a7565b604082019050919050565b6000612642601983612c8f565b915061264d826131f6565b602082019050919050565b6000612665602c83612c8f565b91506126708261321f565b604082019050919050565b6000612688603883612c8f565b91506126938261326e565b604082019050919050565b60006126ab602a83612c8f565b91506126b6826132bd565b604082019050919050565b60006126ce602983612c8f565b91506126d98261330c565b604082019050919050565b60006126f1602283612c8f565b91506126fc8261335b565b604082019050919050565b6000612714602083612c8f565b915061271f826133aa565b602082019050919050565b6000612737602c83612c8f565b9150612742826133d3565b604082019050919050565b600061275a602f83612c8f565b915061276582613422565b604082019050919050565b600061277d602183612c8f565b915061278882613471565b604082019050919050565b60006127a0603183612c8f565b91506127ab826134c0565b604082019050919050565b6127bf81612e3c565b82525050565b60006127d18285612532565b91506127dd8284612532565b91508190509392505050565b60006020820190506127fe60008301846124a2565b92915050565b60006020820190506128196000830184612493565b92915050565b60006060820190506128346000830186612484565b61284160208301856124a2565b61284e60408301846127b6565b949350505050565b600060608201905061286b60008301866124a2565b6128786020830185612484565b61288560408301846127b6565b949350505050565b60006060820190506128a260008301866124a2565b6128af60208301856124a2565b6128bc60408301846127b6565b949350505050565b60006080820190506128d960008301876124a2565b6128e660208301866124a2565b6128f360408301856127b6565b818103606083015261290581846124c0565b905095945050505050565b600060c08201905061292560008301896124a2565b61293260208301886127b6565b61293f6040830187612493565b61294c6060830186612493565b61295960808301856127b6565b61296660a08301846124b1565b979650505050505050565b600060208201905061298660008301846124b1565b92915050565b600060208201905081810360008301526129a681846124f9565b905092915050565b600060208201905081810360008301526129c781612563565b9050919050565b600060208201905081810360008301526129e781612586565b9050919050565b60006020820190508181036000830152612a07816125a9565b9050919050565b60006020820190508181036000830152612a27816125cc565b9050919050565b60006020820190508181036000830152612a47816125ef565b9050919050565b60006020820190508181036000830152612a6781612612565b9050919050565b60006020820190508181036000830152612a8781612635565b9050919050565b60006020820190508181036000830152612aa781612658565b9050919050565b60006020820190508181036000830152612ac78161267b565b9050919050565b60006020820190508181036000830152612ae78161269e565b9050919050565b60006020820190508181036000830152612b07816126c1565b9050919050565b60006020820190508181036000830152612b27816126e4565b9050919050565b60006020820190508181036000830152612b4781612707565b9050919050565b60006020820190508181036000830152612b678161272a565b9050919050565b60006020820190508181036000830152612b878161274d565b9050919050565b60006020820190508181036000830152612ba781612770565b9050919050565b60006020820190508181036000830152612bc781612793565b9050919050565b6000602082019050612be360008301846127b6565b92915050565b6000604082019050612bfe60008301856127b6565b612c0b60208301846127b6565b9392505050565b6000612c1c612c2d565b9050612c288282612ef0565b919050565b6000604051905090565b600067ffffffffffffffff821115612c5257612c51613028565b5b612c5b82613057565b9050602081019050919050565b600081519050919050565b600081519050919050565b600082825260208201905092915050565b600082825260208201905092915050565b600081905092915050565b6000612cb682612e3c565b9150612cc183612e3c565b9250827fffffffffffffffffffffffffffffffffffffffffffffffffffffffffffffffff03821115612cf657612cf5612f9b565b5b828201905092915050565b6000612d0c82612e3c565b9150612d1783612e3c565b925082612d2757612d26612fca565b5b828204905092915050565b6000612d3d82612e3c565b9150612d4883612e3c565b9250817fffffffffffffffffffffffffffffffffffffffffffffffffffffffffffffffff0483118215151615612d8157612d80612f9b565b5b828202905092915050565b6000612d9782612e3c565b9150612da283612e3c565b925082821015612db557612db4612f9b565b5b828203905092915050565b6000612dcb82612e1c565b9050919050565b6000612ddd82612e1c565b9050919050565b60008115159050919050565b60007fffffffff0000000000000000000000000000000000000000000000000000000082169050919050565b600073ffffffffffffffffffffffffffffffffffffffff82169050919050565b6000819050919050565b6000612e5182612e58565b9050919050565b6000612e6382612e6a565b9050919050565b6000612e7582612e1c565b9050919050565b82818337600083830152505050565b60005b83811015612ea9578082015181840152602081019050612e8e565b83811115612eb8576000848401525b50505050565b60006002820490506001821680612ed657607f821691505b60208210811415612eea57612ee9612ff9565b5b50919050565b612ef982613057565b810181811067ffffffffffffffff82111715612f1857612f17613028565b5b80604052505050565b6000612f2c82612e3c565b91507fffffffffffffffffffffffffffffffffffffffffffffffffffffffffffffffff821415612f5f57612f5e612f9b565b5b600182019050919050565b6000612f7582612e3c565b9150612f8083612e3c565b925082612f9057612f8f612fca565b5b828206905092915050565b7f4e487b7100000000000000000000000000000000000000000000000000000000600052601160045260246000fd5b7f4e487b7100000000000000000000000000000000000000000000000000000000600052601260045260246000fd5b7f4e487b7100000000000000000000000000000000000000000000000000000000600052602260045260246000fd5b7f4e487b7100000000000000000000000000000000000000000000000000000000600052604160045260246000fd5b6000601f19601f8301169050919050565b7f6e6f7420656e6f756768206d6174696320746f20636f766572206974656d207060008201527f7269636520616e64206d61726b65742066656500000000000000000000000000602082015250565b7f6974656d20616c726561647920736f6c64000000000000000000000000000000600082015250565b7f4552433732313a207472616e7366657220746f206e6f6e20455243373231526560008201527f63656976657220696d706c656d656e7465720000000000000000000000000000602082015250565b7f4552433732313a207472616e736665722066726f6d20696e636f72726563742060008201527f6f776e6572000000000000000000000000000000000000000000000000000000602082015250565b7f4552433732313a20746f6b656e20616c7265616479206d696e74656400000000600082015250565b7f4552433732313a207472616e7366657220746f20746865207a65726f2061646460008201527f7265737300000000000000000000000000000000000000000000000000000000602082015250565b7f4552433732313a20617070726f766520746f2063616c6c657200000000000000600082015250565b7f4552433732313a206f70657261746f7220717565727920666f72206e6f6e657860008201527f697374656e7420746f6b656e0000000000000000000000000000000000000000602082015250565b7f4552433732313a20617070726f76652063616c6c6572206973206e6f74206f7760008201527f6e6572206e6f7220617070726f76656420666f7220616c6c0000000000000000602082015250565b7f4552433732313a2062616c616e636520717565727920666f7220746865207a6560008201527f726f206164647265737300000000000000000000000000000000000000000000602082015250565b7f4552433732313a206f776e657220717565727920666f72206e6f6e657869737460008201527f656e7420746f6b656e0000000000000000000000000000000000000000000000602082015250565b7f5472616e73666572206f662045544820746f207265636569766572206661696c60008201527f6564000000000000000000000000000000000000000000000000000000000000602082015250565b7f4552433732313a206d696e7420746f20746865207a65726f2061646472657373600082015250565b7f4552433732313a20617070726f76656420717565727920666f72206e6f6e657860008201527f697374656e7420746f6b656e0000000000000000000000000000000000000000602082015250565b7f4552433732314d657461646174613a2055524920717565727920666f72206e6f60008201527f6e6578697374656e7420746f6b656e0000000000000000000000000000000000602082015250565b7f4552433732313a20617070726f76616c20746f2063757272656e74206f776e6560008201527f7200000000000000000000000000000000000000000000000000000000000000602082015250565b7f4552433732313a207472616e736665722063616c6c6572206973206e6f74206f60008201527f776e6572206e6f7220617070726f766564000000000000000000000000000000602082015250565b61351881612dc0565b811461352357600080fd5b50565b61352f81612dd2565b811461353a57600080fd5b50565b61354681612de4565b811461355157600080fd5b50565b61355d81612df0565b811461356857600080fd5b50565b61357481612e3c565b811461357f57600080fd5b5056fea2646970667358221220ea71135a104e8284296d87034a80cbe7789a0ed25f08670cfcc1779e0e9e08c564736f6c63430008040033",
    "linkReferences": {},
    "deployedLinkReferences": {}
}